{
    "contractName": "DAOTreasory",
    "abi": [
        {
            "inputs": [
                {
                    "internalType": "address",
                    "name": "_weth",
                    "type": "address"
                }
            ],
            "stateMutability": "nonpayable",
            "type": "constructor"
        },
        {
            "anonymous": false,
            "inputs": [
                {
                    "indexed": false,
                    "internalType": "address",
                    "name": "",
                    "type": "address"
                },
                {
                    "indexed": false,
                    "internalType": "uint256",
                    "name": "",
                    "type": "uint256"
                }
            ],
            "name": "Received",
            "type": "event"
        },
        {
            "inputs": [],
            "name": "weth",
            "outputs": [
                {
                    "internalType": "contract WETH",
                    "name": "",
                    "type": "address"
                }
            ],
            "stateMutability": "view",
            "type": "function"
        },
        {
            "inputs": [
                {
                    "internalType": "uint256",
                    "name": "_amount",
                    "type": "uint256"
                }
            ],
            "name": "withdrawETH",
            "outputs": [],
            "stateMutability": "nonpayable",
            "type": "function"
        },
        {
            "stateMutability": "payable",
            "type": "receive"
        }
    ],
    "bytecode": "608060405234801561000f575f80fd5b506040516102c63803806102c683398101604081905261002e91610052565b5f80546001600160a01b0319166001600160a01b039290921691909117905561007f565b5f60208284031215610062575f80fd5b81516001600160a01b0381168114610078575f80fd5b9392505050565b61023a8061008c5f395ff3fe60806040526004361061002b575f3560e01c80633fc8cef31461006e578063f14210a6146100a8575f80fd5b3661006a57604080513381523460208201527f88a5966d370b9919b20f3e2c13ff65706f196a4e32cc2c12bf57088f88525874910160405180910390a1005b5f80fd5b348015610079575f80fd5b505f5461008c906001600160a01b031681565b6040516001600160a01b03909116815260200160405180910390f35b3480156100b3575f80fd5b506100c76100c23660046101d6565b6100c9565b005b5f546040516370a0823160e01b815230600482015282916001600160a01b0316906370a0823190602401602060405180830381865afa15801561010e573d5f803e3d5ffd5b505050506040513d601f19601f8201168201806040525081019061013291906101ed565b101561017b5760405162461bcd60e51b8152602060048201526014602482015273496e73756666696369656e742062616c616e636560601b604482015260640160405180910390fd5b5f54604051632e1a7d4d60e01b8152600481018390526001600160a01b0390911690632e1a7d4d906024015f604051808303815f87803b1580156101bd575f80fd5b505af11580156101cf573d5f803e3d5ffd5b5050505050565b5f602082840312156101e6575f80fd5b5035919050565b5f602082840312156101fd575f80fd5b505191905056fea2646970667358221220e3243a31ee3cdedf0f294da5c24b0f6f49e1ac962d80dc7c1e25b33fa57a061764736f6c63430008140033",
    "sourcePath": "/home/nabuza/Alyra/Projet-Final_Legacy-Protocol/backend/contracts/DAOTreasory.sol",
    "compiler": {
        "name": "solc",
        "version": "0.8.20+commit.a1b79de6"
    },
    "functionHashes": {
        "weth()": "3fc8cef3",
        "withdrawETH(uint256)": "f14210a6"
    },
    "gasEstimates": {
        "creation": {
            "codeDepositCost": "114000",
            "executionCost": "infinite",
            "totalCost": "infinite"
        },
        "external": {
            "weth()": "2301",
            "withdrawETH(uint256)": "infinite"
        }
    }
}