{
    "contractName": "Investor",
    "abi": [
        {
            "inputs": [
                {
                    "internalType": "address",
                    "name": "_weth",
                    "type": "address"
                },
                {
                    "internalType": "address",
                    "name": "_vault",
                    "type": "address"
                },
                {
                    "internalType": "address",
                    "name": "_DAOTresory",
                    "type": "address"
                }
            ],
            "stateMutability": "nonpayable",
            "type": "constructor"
        },
        {
            "inputs": [
                {
                    "internalType": "address",
                    "name": "owner",
                    "type": "address"
                }
            ],
            "name": "OwnableInvalidOwner",
            "type": "error"
        },
        {
            "inputs": [
                {
                    "internalType": "address",
                    "name": "account",
                    "type": "address"
                }
            ],
            "name": "OwnableUnauthorizedAccount",
            "type": "error"
        },
        {
            "anonymous": false,
            "inputs": [
                {
                    "indexed": true,
                    "internalType": "address",
                    "name": "previousOwner",
                    "type": "address"
                },
                {
                    "indexed": true,
                    "internalType": "address",
                    "name": "newOwner",
                    "type": "address"
                }
            ],
            "name": "OwnershipTransferred",
            "type": "event"
        },
        {
            "inputs": [],
            "name": "DAOTresoryContractAddress",
            "outputs": [
                {
                    "internalType": "address",
                    "name": "",
                    "type": "address"
                }
            ],
            "stateMutability": "view",
            "type": "function"
        },
        {
            "inputs": [],
            "name": "getBalance",
            "outputs": [
                {
                    "internalType": "uint256",
                    "name": "",
                    "type": "uint256"
                }
            ],
            "stateMutability": "view",
            "type": "function"
        },
        {
            "inputs": [
                {
                    "internalType": "address",
                    "name": "",
                    "type": "address"
                },
                {
                    "internalType": "address",
                    "name": "",
                    "type": "address"
                },
                {
                    "internalType": "uint256",
                    "name": "",
                    "type": "uint256"
                },
                {
                    "internalType": "bytes",
                    "name": "",
                    "type": "bytes"
                }
            ],
            "name": "onERC20Received",
            "outputs": [
                {
                    "internalType": "bytes4",
                    "name": "",
                    "type": "bytes4"
                }
            ],
            "stateMutability": "pure",
            "type": "function"
        },
        {
            "inputs": [],
            "name": "owner",
            "outputs": [
                {
                    "internalType": "address",
                    "name": "",
                    "type": "address"
                }
            ],
            "stateMutability": "view",
            "type": "function"
        },
        {
            "inputs": [],
            "name": "renounceOwnership",
            "outputs": [],
            "stateMutability": "nonpayable",
            "type": "function"
        },
        {
            "inputs": [],
            "name": "sendTokensBack",
            "outputs": [],
            "stateMutability": "nonpayable",
            "type": "function"
        },
        {
            "inputs": [
                {
                    "internalType": "address",
                    "name": "_yield",
                    "type": "address"
                }
            ],
            "name": "sendTokensToYield",
            "outputs": [],
            "stateMutability": "nonpayable",
            "type": "function"
        },
        {
            "inputs": [
                {
                    "internalType": "address",
                    "name": "newOwner",
                    "type": "address"
                }
            ],
            "name": "transferOwnership",
            "outputs": [],
            "stateMutability": "nonpayable",
            "type": "function"
        },
        {
            "inputs": [],
            "name": "vault",
            "outputs": [
                {
                    "internalType": "contract Vault",
                    "name": "",
                    "type": "address"
                }
            ],
            "stateMutability": "view",
            "type": "function"
        },
        {
            "inputs": [],
            "name": "weth",
            "outputs": [
                {
                    "internalType": "contract WETH",
                    "name": "",
                    "type": "address"
                }
            ],
            "stateMutability": "view",
            "type": "function"
        },
        {
            "inputs": [],
            "name": "yieldContractAdrress",
            "outputs": [
                {
                    "internalType": "address",
                    "name": "",
                    "type": "address"
                }
            ],
            "stateMutability": "view",
            "type": "function"
        }
    ],
    "bytecode": "608060405234801561000f575f80fd5b5060405161088f38038061088f83398101604081905261002e91610109565b338061005357604051631e4fbdf760e01b81525f600482015260240160405180910390fd5b61005c8161009f565b50600180546001600160a01b039485166001600160a01b031991821617909155600280549385169382169390931790925560058054919093169116179055610149565b5f80546001600160a01b038381166001600160a01b0319831681178455604051919092169283917f8be0079c531659141344cd1fd0a4f28419497f9722a3daafe3b4186f6b6457e09190a35050565b80516001600160a01b0381168114610104575f80fd5b919050565b5f805f6060848603121561011b575f80fd5b610124846100ee565b9250610132602085016100ee565b9150610140604085016100ee565b90509250925092565b610739806101565f395ff3fe608060405234801561000f575f80fd5b50600436106100a6575f3560e01c80638da5cb5b1161006e5780638da5cb5b1461014557806392b8c1f014610155578063b37def4a14610168578063e097e7b91461017b578063f2fde38b14610183578063fbfa77cf14610196575f80fd5b806312065fe0146100aa5780633fc8cef3146100c55780634fc35859146100f057806354f5a39514610128578063715018a61461013b575b5f80fd5b6100b26101a9565b6040519081526020015b60405180910390f35b6001546100d8906001600160a01b031681565b6040516001600160a01b0390911681526020016100bc565b61010f6100fe3660046105bb565b634fc3585960e01b95945050505050565b6040516001600160e01b031990911681526020016100bc565b6005546100d8906001600160a01b031681565b610143610218565b005b5f546001600160a01b03166100d8565b6006546100d8906001600160a01b031681565b61014361017636600461064e565b61022b565b61014361031a565b61014361019136600461064e565b6104e6565b6002546100d8906001600160a01b031681565b6001546040516370a0823160e01b81523060048201525f916001600160a01b0316906370a0823190602401602060405180830381865afa1580156101ef573d5f803e3d5ffd5b505050506040513d601f19601f82011682018060405250810190610213919061066e565b905090565b610220610525565b6102295f610551565b565b610233610525565b6001546040516370a0823160e01b81523060048201526001600160a01b03909116906370a0823190602401602060405180830381865afa158015610279573d5f803e3d5ffd5b505050506040513d601f19601f8201168201806040525081019061029d919061066e565b600381905560015460405163a9059cbb60e01b81526001600160a01b038481166004830152602482019390935291169063a9059cbb906044016020604051808303815f875af11580156102f2573d5f803e3d5ffd5b505050506040513d601f19601f820116820180604052508101906103169190610685565b5050565b610322610525565b6001546040516370a0823160e01b81523060048201526001600160a01b03909116906370a0823190602401602060405180830381865afa158015610368573d5f803e3d5ffd5b505050506040513d601f19601f8201168201806040525081019061038c919061066e565b6004819055600154600280546003546001600160a01b039384169463a9059cbb9490921692916103bc91906106b8565b6103c691906106d1565b6003546103d391906106f0565b6040516001600160e01b031960e085901b1681526001600160a01b03909216600483015260248201526044016020604051808303815f875af115801561041b573d5f803e3d5ffd5b505050506040513d601f19601f8201168201806040525081019061043f9190610685565b506001546005546003546004546001600160a01b039384169363a9059cbb93169160029161046d91906106b8565b61047791906106d1565b6040516001600160e01b031960e085901b1681526001600160a01b03909216600483015260248201526044016020604051808303815f875af11580156104bf573d5f803e3d5ffd5b505050506040513d601f19601f820116820180604052508101906104e39190610685565b50565b6104ee610525565b6001600160a01b03811661051c57604051631e4fbdf760e01b81525f60048201526024015b60405180910390fd5b6104e381610551565b5f546001600160a01b031633146102295760405163118cdaa760e01b8152336004820152602401610513565b5f80546001600160a01b038381166001600160a01b0319831681178455604051919092169283917f8be0079c531659141344cd1fd0a4f28419497f9722a3daafe3b4186f6b6457e09190a35050565b80356001600160a01b03811681146105b6575f80fd5b919050565b5f805f805f608086880312156105cf575f80fd5b6105d8866105a0565b94506105e6602087016105a0565b935060408601359250606086013567ffffffffffffffff80821115610609575f80fd5b818801915088601f83011261061c575f80fd5b81358181111561062a575f80fd5b89602082850101111561063b575f80fd5b9699959850939650602001949392505050565b5f6020828403121561065e575f80fd5b610667826105a0565b9392505050565b5f6020828403121561067e575f80fd5b5051919050565b5f60208284031215610695575f80fd5b81518015158114610667575f80fd5b634e487b7160e01b5f52601160045260245ffd5b818103818111156106cb576106cb6106a4565b92915050565b5f826106eb57634e487b7160e01b5f52601260045260245ffd5b500490565b808201808211156106cb576106cb6106a456fea2646970667358221220eb35396705122e142a5991231f3eae82ccb66b2e693d0470364c56fc95ae2df864736f6c63430008140033",
    "sourcePath": "/home/nabuza/Alyra/Projet-Final_Legacy-Protocol/backend/contracts/Investor.sol",
    "compiler": {
        "name": "solc",
        "version": "0.8.20+commit.a1b79de6"
    },
    "functionHashes": {
        "DAOTresoryContractAddress()": "54f5a395",
        "getBalance()": "12065fe0",
        "onERC20Received(address,address,uint256,bytes)": "4fc35859",
        "owner()": "8da5cb5b",
        "renounceOwnership()": "715018a6",
        "sendTokensBack()": "e097e7b9",
        "sendTokensToYield(address)": "b37def4a",
        "transferOwnership(address)": "f2fde38b",
        "vault()": "fbfa77cf",
        "weth()": "3fc8cef3",
        "yieldContractAdrress()": "92b8c1f0"
    },
    "gasEstimates": {
        "creation": {
            "codeDepositCost": "369800",
            "executionCost": "infinite",
            "totalCost": "infinite"
        },
        "external": {
            "DAOTresoryContractAddress()": "2403",
            "getBalance()": "infinite",
            "onERC20Received(address,address,uint256,bytes)": "infinite",
            "owner()": "2329",
            "renounceOwnership()": "infinite",
            "sendTokensBack()": "infinite",
            "sendTokensToYield(address)": "infinite",
            "transferOwnership(address)": "28417",
            "vault()": "2446",
            "weth()": "2359",
            "yieldContractAdrress()": "2358"
        }
    }
}