{
    "contractName": "SafetyModule",
    "abi": [
        {
            "anonymous": false,
            "inputs": [
                {
                    "indexed": false,
                    "internalType": "address",
                    "name": "",
                    "type": "address"
                },
                {
                    "indexed": false,
                    "internalType": "uint256",
                    "name": "",
                    "type": "uint256"
                }
            ],
            "name": "Received",
            "type": "event"
        },
        {
            "anonymous": false,
            "inputs": [
                {
                    "indexed": true,
                    "internalType": "address",
                    "name": "account",
                    "type": "address"
                },
                {
                    "indexed": false,
                    "internalType": "uint256",
                    "name": "amount",
                    "type": "uint256"
                }
            ],
            "name": "etherDeposited",
            "type": "event"
        },
        {
            "anonymous": false,
            "inputs": [
                {
                    "indexed": true,
                    "internalType": "address",
                    "name": "account",
                    "type": "address"
                },
                {
                    "indexed": false,
                    "internalType": "uint256",
                    "name": "amount",
                    "type": "uint256"
                }
            ],
            "name": "etherWithdrawed",
            "type": "event"
        },
        {
            "inputs": [],
            "name": "deposit",
            "outputs": [],
            "stateMutability": "payable",
            "type": "function"
        },
        {
            "inputs": [],
            "name": "getBalanceOfUser",
            "outputs": [
                {
                    "internalType": "uint256",
                    "name": "",
                    "type": "uint256"
                }
            ],
            "stateMutability": "view",
            "type": "function"
        },
        {
            "inputs": [],
            "name": "getLastDepositOfUser",
            "outputs": [
                {
                    "internalType": "uint256",
                    "name": "",
                    "type": "uint256"
                }
            ],
            "stateMutability": "view",
            "type": "function"
        },
        {
            "inputs": [
                {
                    "internalType": "uint256",
                    "name": "_amount",
                    "type": "uint256"
                }
            ],
            "name": "withdraw",
            "outputs": [],
            "stateMutability": "nonpayable",
            "type": "function"
        },
        {
            "stateMutability": "payable",
            "type": "receive"
        }
    ],
    "bytecode": "608060405234801561000f575f80fd5b506103808061001d5f395ff3fe608060405260043610610041575f3560e01c80632e1a7d4d1461008457806379982de4146100a5578063868dc10e146100d3578063d0e30db0146100f6575f80fd5b3661008057604080513381523460208201527f88a5966d370b9919b20f3e2c13ff65706f196a4e32cc2c12bf57088f88525874910160405180910390a1005b5f80fd5b34801561008f575f80fd5b506100a361009e3660046102f3565b6100fe565b005b3480156100b0575f80fd5b50335f908152602081905260409020545b60405190815260200160405180910390f35b3480156100de575f80fd5b50335f908152602081905260409020600101546100c1565b6100a3610238565b335f908152602081905260409020548111156101545760405162461bcd60e51b815260206004820152601060248201526f4e6f7420656e6f7567682066756e647360801b60448201526064015b60405180910390fd5b335f908152602081905260408120805483929061017290849061031e565b909155505060405181815233907f47ed555d8b6242a89fcdab94795dc91c98a0e46db88f4a2b2bda3371956fd0d09060200160405180910390a26040515f90339083908381818185875af1925050503d805f81146101eb576040519150601f19603f3d011682016040523d82523d5f602084013e6101f0565b606091505b50509050806102345760405162461bcd60e51b815260206004820152601060248201526f105b88195c9c9bdc881bd8d8dd5c995960821b604482015260640161014b565b5050565b5f34116102875760405162461bcd60e51b815260206004820152601a60248201527f4e6f7420656e6f7567682066756e6473206465706f7369746564000000000000604482015260640161014b565b335f90815260208190526040812080543492906102a5908490610337565b9091555050335f81815260208181526040918290204260019091015590513481527f4de483450f36dd8489373cf9166b2260f09ae72422d836e12fd9565cec1cb91e910160405180910390a2565b5f60208284031215610303575f80fd5b5035919050565b634e487b7160e01b5f52601160045260245ffd5b818103818111156103315761033161030a565b92915050565b808201808211156103315761033161030a56fea264697066735822122083a0d55d5808d058293e30a4b075a6657d35b1440adea1f07552301d38dfe20964736f6c63430008140033",
    "sourcePath": "/home/nabuza/Alyra/Projet-Final_Legacy-Protocol/backend/contracts/SafetyModule.sol",
    "compiler": {
        "name": "solc",
        "version": "0.8.20+commit.a1b79de6"
    },
    "functionHashes": {
        "deposit()": "d0e30db0",
        "getBalanceOfUser()": "79982de4",
        "getLastDepositOfUser()": "868dc10e",
        "withdraw(uint256)": "2e1a7d4d"
    },
    "gasEstimates": {
        "creation": {
            "codeDepositCost": "179200",
            "executionCost": "218",
            "totalCost": "179418"
        },
        "external": {
            "deposit()": "48177",
            "getBalanceOfUser()": "2338",
            "getLastDepositOfUser()": "2377",
            "withdraw(uint256)": "infinite"
        }
    }
}