{
    "contractName": "WETH",
    "abi": [
        {
            "inputs": [
                {
                    "internalType": "address payable",
                    "name": "_safetymodule",
                    "type": "address"
                }
            ],
            "stateMutability": "nonpayable",
            "type": "constructor"
        },
        {
            "inputs": [
                {
                    "internalType": "address",
                    "name": "spender",
                    "type": "address"
                },
                {
                    "internalType": "uint256",
                    "name": "allowance",
                    "type": "uint256"
                },
                {
                    "internalType": "uint256",
                    "name": "needed",
                    "type": "uint256"
                }
            ],
            "name": "ERC20InsufficientAllowance",
            "type": "error"
        },
        {
            "inputs": [
                {
                    "internalType": "address",
                    "name": "sender",
                    "type": "address"
                },
                {
                    "internalType": "uint256",
                    "name": "balance",
                    "type": "uint256"
                },
                {
                    "internalType": "uint256",
                    "name": "needed",
                    "type": "uint256"
                }
            ],
            "name": "ERC20InsufficientBalance",
            "type": "error"
        },
        {
            "inputs": [
                {
                    "internalType": "address",
                    "name": "approver",
                    "type": "address"
                }
            ],
            "name": "ERC20InvalidApprover",
            "type": "error"
        },
        {
            "inputs": [
                {
                    "internalType": "address",
                    "name": "receiver",
                    "type": "address"
                }
            ],
            "name": "ERC20InvalidReceiver",
            "type": "error"
        },
        {
            "inputs": [
                {
                    "internalType": "address",
                    "name": "sender",
                    "type": "address"
                }
            ],
            "name": "ERC20InvalidSender",
            "type": "error"
        },
        {
            "inputs": [
                {
                    "internalType": "address",
                    "name": "spender",
                    "type": "address"
                }
            ],
            "name": "ERC20InvalidSpender",
            "type": "error"
        },
        {
            "inputs": [
                {
                    "internalType": "address",
                    "name": "owner",
                    "type": "address"
                }
            ],
            "name": "OwnableInvalidOwner",
            "type": "error"
        },
        {
            "inputs": [
                {
                    "internalType": "address",
                    "name": "account",
                    "type": "address"
                }
            ],
            "name": "OwnableUnauthorizedAccount",
            "type": "error"
        },
        {
            "anonymous": false,
            "inputs": [
                {
                    "indexed": true,
                    "internalType": "address",
                    "name": "owner",
                    "type": "address"
                },
                {
                    "indexed": true,
                    "internalType": "address",
                    "name": "spender",
                    "type": "address"
                },
                {
                    "indexed": false,
                    "internalType": "uint256",
                    "name": "value",
                    "type": "uint256"
                }
            ],
            "name": "Approval",
            "type": "event"
        },
        {
            "anonymous": false,
            "inputs": [
                {
                    "indexed": true,
                    "internalType": "address",
                    "name": "previousOwner",
                    "type": "address"
                },
                {
                    "indexed": true,
                    "internalType": "address",
                    "name": "newOwner",
                    "type": "address"
                }
            ],
            "name": "OwnershipTransferred",
            "type": "event"
        },
        {
            "anonymous": false,
            "inputs": [
                {
                    "indexed": true,
                    "internalType": "address",
                    "name": "from",
                    "type": "address"
                },
                {
                    "indexed": true,
                    "internalType": "address",
                    "name": "to",
                    "type": "address"
                },
                {
                    "indexed": false,
                    "internalType": "uint256",
                    "name": "value",
                    "type": "uint256"
                }
            ],
            "name": "Transfer",
            "type": "event"
        },
        {
            "inputs": [
                {
                    "internalType": "address",
                    "name": "owner",
                    "type": "address"
                },
                {
                    "internalType": "address",
                    "name": "spender",
                    "type": "address"
                }
            ],
            "name": "allowance",
            "outputs": [
                {
                    "internalType": "uint256",
                    "name": "",
                    "type": "uint256"
                }
            ],
            "stateMutability": "view",
            "type": "function"
        },
        {
            "inputs": [
                {
                    "internalType": "address",
                    "name": "spender",
                    "type": "address"
                },
                {
                    "internalType": "uint256",
                    "name": "value",
                    "type": "uint256"
                }
            ],
            "name": "approve",
            "outputs": [
                {
                    "internalType": "bool",
                    "name": "",
                    "type": "bool"
                }
            ],
            "stateMutability": "nonpayable",
            "type": "function"
        },
        {
            "inputs": [
                {
                    "internalType": "address",
                    "name": "owner",
                    "type": "address"
                },
                {
                    "internalType": "uint256",
                    "name": "value",
                    "type": "uint256"
                }
            ],
            "name": "approved",
            "outputs": [],
            "stateMutability": "nonpayable",
            "type": "function"
        },
        {
            "inputs": [
                {
                    "internalType": "address",
                    "name": "account",
                    "type": "address"
                }
            ],
            "name": "balanceOf",
            "outputs": [
                {
                    "internalType": "uint256",
                    "name": "",
                    "type": "uint256"
                }
            ],
            "stateMutability": "view",
            "type": "function"
        },
        {
            "inputs": [],
            "name": "decimals",
            "outputs": [
                {
                    "internalType": "uint8",
                    "name": "",
                    "type": "uint8"
                }
            ],
            "stateMutability": "view",
            "type": "function"
        },
        {
            "inputs": [],
            "name": "deposit",
            "outputs": [],
            "stateMutability": "payable",
            "type": "function"
        },
        {
            "inputs": [
                {
                    "internalType": "address",
                    "name": "to",
                    "type": "address"
                },
                {
                    "internalType": "uint256",
                    "name": "amount",
                    "type": "uint256"
                }
            ],
            "name": "mint",
            "outputs": [],
            "stateMutability": "nonpayable",
            "type": "function"
        },
        {
            "inputs": [],
            "name": "name",
            "outputs": [
                {
                    "internalType": "string",
                    "name": "",
                    "type": "string"
                }
            ],
            "stateMutability": "view",
            "type": "function"
        },
        {
            "inputs": [],
            "name": "owner",
            "outputs": [
                {
                    "internalType": "address",
                    "name": "",
                    "type": "address"
                }
            ],
            "stateMutability": "view",
            "type": "function"
        },
        {
            "inputs": [],
            "name": "renounceOwnership",
            "outputs": [],
            "stateMutability": "nonpayable",
            "type": "function"
        },
        {
            "inputs": [],
            "name": "safetymodule",
            "outputs": [
                {
                    "internalType": "contract SafetyModule",
                    "name": "",
                    "type": "address"
                }
            ],
            "stateMutability": "view",
            "type": "function"
        },
        {
            "inputs": [],
            "name": "symbol",
            "outputs": [
                {
                    "internalType": "string",
                    "name": "",
                    "type": "string"
                }
            ],
            "stateMutability": "view",
            "type": "function"
        },
        {
            "inputs": [],
            "name": "totalSupply",
            "outputs": [
                {
                    "internalType": "uint256",
                    "name": "",
                    "type": "uint256"
                }
            ],
            "stateMutability": "view",
            "type": "function"
        },
        {
            "inputs": [
                {
                    "internalType": "address",
                    "name": "to",
                    "type": "address"
                },
                {
                    "internalType": "uint256",
                    "name": "value",
                    "type": "uint256"
                }
            ],
            "name": "transfer",
            "outputs": [
                {
                    "internalType": "bool",
                    "name": "",
                    "type": "bool"
                }
            ],
            "stateMutability": "nonpayable",
            "type": "function"
        },
        {
            "inputs": [
                {
                    "internalType": "address",
                    "name": "from",
                    "type": "address"
                },
                {
                    "internalType": "address",
                    "name": "to",
                    "type": "address"
                },
                {
                    "internalType": "uint256",
                    "name": "value",
                    "type": "uint256"
                }
            ],
            "name": "transferFrom",
            "outputs": [
                {
                    "internalType": "bool",
                    "name": "",
                    "type": "bool"
                }
            ],
            "stateMutability": "nonpayable",
            "type": "function"
        },
        {
            "inputs": [
                {
                    "internalType": "address",
                    "name": "newOwner",
                    "type": "address"
                }
            ],
            "name": "transferOwnership",
            "outputs": [],
            "stateMutability": "nonpayable",
            "type": "function"
        },
        {
            "inputs": [
                {
                    "internalType": "uint256",
                    "name": "_amount",
                    "type": "uint256"
                }
            ],
            "name": "withdraw",
            "outputs": [],
            "stateMutability": "nonpayable",
            "type": "function"
        }
    ],
    "bytecode": "608060405234801562000010575f80fd5b5060405162000f0f38038062000f0f83398101604081905262000033916200014b565b336040518060400160405280600d81526020016c2bb930b83832b21022ba3432b960991b815250604051806040016040528060048152602001630ae8aa8960e31b81525081600390816200008891906200021a565b5060046200009782826200021a565b5050506001600160a01b038116620000c857604051631e4fbdf760e01b81525f600482015260240160405180910390fd5b620000d381620000fa565b50600680546001600160a01b0319166001600160a01b0392909216919091179055620002e2565b600580546001600160a01b038381166001600160a01b0319831681179093556040519116919082907f8be0079c531659141344cd1fd0a4f28419497f9722a3daafe3b4186f6b6457e0905f90a35050565b5f602082840312156200015c575f80fd5b81516001600160a01b038116811462000173575f80fd5b9392505050565b634e487b7160e01b5f52604160045260245ffd5b600181811c90821680620001a357607f821691505b602082108103620001c257634e487b7160e01b5f52602260045260245ffd5b50919050565b601f82111562000215575f81815260208120601f850160051c81016020861015620001f05750805b601f850160051c820191505b818110156200021157828155600101620001fc565b5050505b505050565b81516001600160401b038111156200023657620002366200017a565b6200024e816200024784546200018e565b84620001c8565b602080601f83116001811462000284575f84156200026c5750858301515b5f19600386901b1c1916600185901b17855562000211565b5f85815260208120601f198616915b82811015620002b45788860151825594840194600190910190840162000293565b5085821015620002d257878501515f19600388901b60f8161c191681555b5050505050600190811b01905550565b610c1f80620002f05f395ff3fe6080604052600436106100fa575f3560e01c8063715018a611610092578063a9059cbb11610062578063a9059cbb1461029b578063c1448284146102ba578063d0e30db0146102d9578063dd62ed3e146102e1578063f2fde38b14610325575f80fd5b8063715018a6146102235780638da5cb5b1461023757806392dd9b311461026857806395d89b4114610287575f80fd5b80632e1a7d4d116100cd5780632e1a7d4d14610194578063313ce567146101b557806340c10f19146101d057806370a08231146101ef575f80fd5b806306fdde03146100fe578063095ea7b31461012857806318160ddd1461015757806323b872dd14610175575b5f80fd5b348015610109575f80fd5b50610112610344565b60405161011f9190610a29565b60405180910390f35b348015610133575f80fd5b50610147610142366004610a8f565b6103d4565b604051901515815260200161011f565b348015610162575f80fd5b506002545b60405190815260200161011f565b348015610180575f80fd5b5061014761018f366004610ab7565b6103ed565b34801561019f575f80fd5b506101b36101ae366004610af0565b610410565b005b3480156101c0575f80fd5b506040516012815260200161011f565b3480156101db575f80fd5b506101b36101ea366004610a8f565b6104a2565b3480156101fa575f80fd5b50610167610209366004610b07565b6001600160a01b03165f9081526020819052604090205490565b34801561022e575f80fd5b506101b36104ac565b348015610242575f80fd5b506005546001600160a01b03165b6040516001600160a01b03909116815260200161011f565b348015610273575f80fd5b50600654610250906001600160a01b031681565b348015610292575f80fd5b506101126104bf565b3480156102a6575f80fd5b506101476102b5366004610a8f565b6104ce565b3480156102c5575f80fd5b506101b36102d4366004610a8f565b6104db565b6101b36104ee565b3480156102ec575f80fd5b506101676102fb366004610b27565b6001600160a01b039182165f90815260016020908152604080832093909416825291909152205490565b348015610330575f80fd5b506101b361033f366004610b07565b610624565b60606003805461035390610b58565b80601f016020809104026020016040519081016040528092919081815260200182805461037f90610b58565b80156103ca5780601f106103a1576101008083540402835291602001916103ca565b820191905f5260205f20905b8154815290600101906020018083116103ad57829003601f168201915b5050505050905090565b5f336103e1818585610661565b60019150505b92915050565b5f336103fa858285610673565b6104058585856106ee565b506001949350505050565b335f9081526020819052604090205481111561046a5760405162461bcd60e51b8152602060048201526014602482015273496e73756666696369656e742062616c616e636560601b60448201526064015b60405180910390fd5b610474338261074b565b604051339082156108fc029083905f818181858888f1935050505015801561049e573d5f803e3d5ffd5b5050565b61049e828261077f565b6104b46107b3565b6104bd5f6107e0565b565b60606004805461035390610b58565b5f336103e18185856106ee565b6104e36107b3565b61049e823383610661565b67016345785d8a00003410156105545760405162461bcd60e51b815260206004820152602560248201527f496e73756666696369656e74206465706f7369742c206d696e696d756d20302c604482015264062408aa8960db1b6064820152608401610461565b5f610560600534610ba4565b6006546040519192505f916001600160a01b039091169083908381818185875af1925050503d805f81146105af576040519150601f19603f3d011682016040523d82523d5f602084013e6105b4565b606091505b50509050806106115760405162461bcd60e51b815260206004820152602360248201527f4661696c656420746f2073656e6420323025206f66204574686572206465706f6044820152621cda5d60ea1b6064820152608401610461565b61049e3361061f8434610bc3565b61077f565b61062c6107b3565b6001600160a01b03811661065557604051631e4fbdf760e01b81525f6004820152602401610461565b61065e816107e0565b50565b61066e8383836001610831565b505050565b6001600160a01b038381165f908152600160209081526040808320938616835292905220545f1981146106e857818110156106da57604051637dc7a0d960e11b81526001600160a01b03841660048201526024810182905260448101839052606401610461565b6106e884848484035f610831565b50505050565b6001600160a01b03831661071757604051634b637e8f60e11b81525f6004820152602401610461565b6001600160a01b0382166107405760405163ec442f0560e01b81525f6004820152602401610461565b61066e838383610903565b6001600160a01b03821661077457604051634b637e8f60e11b81525f6004820152602401610461565b61049e825f83610903565b6001600160a01b0382166107a85760405163ec442f0560e01b81525f6004820152602401610461565b61049e5f8383610903565b6005546001600160a01b031633146104bd5760405163118cdaa760e01b8152336004820152602401610461565b600580546001600160a01b038381166001600160a01b0319831681179093556040519116919082907f8be0079c531659141344cd1fd0a4f28419497f9722a3daafe3b4186f6b6457e0905f90a35050565b6001600160a01b03841661085a5760405163e602df0560e01b81525f6004820152602401610461565b6001600160a01b03831661088357604051634a1406b160e11b81525f6004820152602401610461565b6001600160a01b038085165f90815260016020908152604080832093871683529290522082905580156106e857826001600160a01b0316846001600160a01b03167f8c5be1e5ebec7d5bd14f71427d1e84f3dd0314c0f7b2291e5b200ac8c7c3b925846040516108f591815260200190565b60405180910390a350505050565b6001600160a01b03831661092d578060025f8282546109229190610bd6565b9091555061099d9050565b6001600160a01b0383165f908152602081905260409020548181101561097f5760405163391434e360e21b81526001600160a01b03851660048201526024810182905260448101839052606401610461565b6001600160a01b0384165f9081526020819052604090209082900390555b6001600160a01b0382166109b9576002805482900390556109d7565b6001600160a01b0382165f9081526020819052604090208054820190555b816001600160a01b0316836001600160a01b03167fddf252ad1be2c89b69c2b068fc378daa952ba7f163c4a11628f55a4df523b3ef83604051610a1c91815260200190565b60405180910390a3505050565b5f6020808352835180828501525f5b81811015610a5457858101830151858201604001528201610a38565b505f604082860101526040601f19601f8301168501019250505092915050565b80356001600160a01b0381168114610a8a575f80fd5b919050565b5f8060408385031215610aa0575f80fd5b610aa983610a74565b946020939093013593505050565b5f805f60608486031215610ac9575f80fd5b610ad284610a74565b9250610ae060208501610a74565b9150604084013590509250925092565b5f60208284031215610b00575f80fd5b5035919050565b5f60208284031215610b17575f80fd5b610b2082610a74565b9392505050565b5f8060408385031215610b38575f80fd5b610b4183610a74565b9150610b4f60208401610a74565b90509250929050565b600181811c90821680610b6c57607f821691505b602082108103610b8a57634e487b7160e01b5f52602260045260245ffd5b50919050565b634e487b7160e01b5f52601160045260245ffd5b5f82610bbe57634e487b7160e01b5f52601260045260245ffd5b500490565b818103818111156103e7576103e7610b90565b808201808211156103e7576103e7610b9056fea2646970667358221220e3358f6f53a3211530ee6b5ea52b963709d567069849ad1f7570b4a8f9875ab364736f6c63430008140033",
    "sourcePath": "/home/nabuza/Alyra/Projet-Final_Legacy-Protocol/backend/contracts/WETH.sol",
    "compiler": {
        "name": "solc",
        "version": "0.8.20+commit.a1b79de6"
    },
    "functionHashes": {
        "allowance(address,address)": "dd62ed3e",
        "approve(address,uint256)": "095ea7b3",
        "approved(address,uint256)": "c1448284",
        "balanceOf(address)": "70a08231",
        "decimals()": "313ce567",
        "deposit()": "d0e30db0",
        "mint(address,uint256)": "40c10f19",
        "name()": "06fdde03",
        "owner()": "8da5cb5b",
        "renounceOwnership()": "715018a6",
        "safetymodule()": "92dd9b31",
        "symbol()": "95d89b41",
        "totalSupply()": "18160ddd",
        "transfer(address,uint256)": "a9059cbb",
        "transferFrom(address,address,uint256)": "23b872dd",
        "transferOwnership(address)": "f2fde38b",
        "withdraw(uint256)": "2e1a7d4d"
    },
    "gasEstimates": {
        "creation": {
            "codeDepositCost": "620600",
            "executionCost": "infinite",
            "totalCost": "infinite"
        },
        "external": {
            "allowance(address,address)": "infinite",
            "approve(address,uint256)": "24758",
            "approved(address,uint256)": "26841",
            "balanceOf(address)": "2626",
            "decimals()": "221",
            "deposit()": "infinite",
            "mint(address,uint256)": "infinite",
            "name()": "infinite",
            "owner()": "2364",
            "renounceOwnership()": "infinite",
            "safetymodule()": "2403",
            "symbol()": "infinite",
            "totalSupply()": "2348",
            "transfer(address,uint256)": "51238",
            "transferFrom(address,address,uint256)": "infinite",
            "transferOwnership(address)": "28443",
            "withdraw(uint256)": "infinite"
        }
    }
}