{
    "contractName": "WETH",
    "abi": [
        {
            "inputs": [
                {
                    "internalType": "address payable",
                    "name": "_safetymodule",
                    "type": "address"
                }
            ],
            "stateMutability": "nonpayable",
            "type": "constructor"
        },
        {
            "inputs": [
                {
                    "internalType": "address",
                    "name": "spender",
                    "type": "address"
                },
                {
                    "internalType": "uint256",
                    "name": "allowance",
                    "type": "uint256"
                },
                {
                    "internalType": "uint256",
                    "name": "needed",
                    "type": "uint256"
                }
            ],
            "name": "ERC20InsufficientAllowance",
            "type": "error"
        },
        {
            "inputs": [
                {
                    "internalType": "address",
                    "name": "sender",
                    "type": "address"
                },
                {
                    "internalType": "uint256",
                    "name": "balance",
                    "type": "uint256"
                },
                {
                    "internalType": "uint256",
                    "name": "needed",
                    "type": "uint256"
                }
            ],
            "name": "ERC20InsufficientBalance",
            "type": "error"
        },
        {
            "inputs": [
                {
                    "internalType": "address",
                    "name": "approver",
                    "type": "address"
                }
            ],
            "name": "ERC20InvalidApprover",
            "type": "error"
        },
        {
            "inputs": [
                {
                    "internalType": "address",
                    "name": "receiver",
                    "type": "address"
                }
            ],
            "name": "ERC20InvalidReceiver",
            "type": "error"
        },
        {
            "inputs": [
                {
                    "internalType": "address",
                    "name": "sender",
                    "type": "address"
                }
            ],
            "name": "ERC20InvalidSender",
            "type": "error"
        },
        {
            "inputs": [
                {
                    "internalType": "address",
                    "name": "spender",
                    "type": "address"
                }
            ],
            "name": "ERC20InvalidSpender",
            "type": "error"
        },
        {
            "anonymous": false,
            "inputs": [
                {
                    "indexed": true,
                    "internalType": "address",
                    "name": "owner",
                    "type": "address"
                },
                {
                    "indexed": true,
                    "internalType": "address",
                    "name": "spender",
                    "type": "address"
                },
                {
                    "indexed": false,
                    "internalType": "uint256",
                    "name": "value",
                    "type": "uint256"
                }
            ],
            "name": "Approval",
            "type": "event"
        },
        {
            "anonymous": false,
            "inputs": [
                {
                    "indexed": true,
                    "internalType": "address",
                    "name": "from",
                    "type": "address"
                },
                {
                    "indexed": true,
                    "internalType": "address",
                    "name": "to",
                    "type": "address"
                },
                {
                    "indexed": false,
                    "internalType": "uint256",
                    "name": "value",
                    "type": "uint256"
                }
            ],
            "name": "Transfer",
            "type": "event"
        },
        {
            "inputs": [
                {
                    "internalType": "address",
                    "name": "owner",
                    "type": "address"
                },
                {
                    "internalType": "address",
                    "name": "spender",
                    "type": "address"
                }
            ],
            "name": "allowance",
            "outputs": [
                {
                    "internalType": "uint256",
                    "name": "",
                    "type": "uint256"
                }
            ],
            "stateMutability": "view",
            "type": "function"
        },
        {
            "inputs": [
                {
                    "internalType": "address",
                    "name": "spender",
                    "type": "address"
                },
                {
                    "internalType": "uint256",
                    "name": "value",
                    "type": "uint256"
                }
            ],
            "name": "approve",
            "outputs": [
                {
                    "internalType": "bool",
                    "name": "",
                    "type": "bool"
                }
            ],
            "stateMutability": "nonpayable",
            "type": "function"
        },
        {
            "inputs": [
                {
                    "internalType": "address",
                    "name": "account",
                    "type": "address"
                }
            ],
            "name": "balanceOf",
            "outputs": [
                {
                    "internalType": "uint256",
                    "name": "",
                    "type": "uint256"
                }
            ],
            "stateMutability": "view",
            "type": "function"
        },
        {
            "inputs": [],
            "name": "decimals",
            "outputs": [
                {
                    "internalType": "uint8",
                    "name": "",
                    "type": "uint8"
                }
            ],
            "stateMutability": "view",
            "type": "function"
        },
        {
            "inputs": [],
            "name": "deposit",
            "outputs": [],
            "stateMutability": "payable",
            "type": "function"
        },
        {
            "inputs": [
                {
                    "internalType": "address",
                    "name": "to",
                    "type": "address"
                },
                {
                    "internalType": "uint256",
                    "name": "amount",
                    "type": "uint256"
                }
            ],
            "name": "mint",
            "outputs": [],
            "stateMutability": "nonpayable",
            "type": "function"
        },
        {
            "inputs": [],
            "name": "name",
            "outputs": [
                {
                    "internalType": "string",
                    "name": "",
                    "type": "string"
                }
            ],
            "stateMutability": "view",
            "type": "function"
        },
        {
            "inputs": [],
            "name": "safetymodule",
            "outputs": [
                {
                    "internalType": "contract SafetyModule",
                    "name": "",
                    "type": "address"
                }
            ],
            "stateMutability": "view",
            "type": "function"
        },
        {
            "inputs": [],
            "name": "symbol",
            "outputs": [
                {
                    "internalType": "string",
                    "name": "",
                    "type": "string"
                }
            ],
            "stateMutability": "view",
            "type": "function"
        },
        {
            "inputs": [],
            "name": "totalSupply",
            "outputs": [
                {
                    "internalType": "uint256",
                    "name": "",
                    "type": "uint256"
                }
            ],
            "stateMutability": "view",
            "type": "function"
        },
        {
            "inputs": [
                {
                    "internalType": "address",
                    "name": "to",
                    "type": "address"
                },
                {
                    "internalType": "uint256",
                    "name": "value",
                    "type": "uint256"
                }
            ],
            "name": "transfer",
            "outputs": [
                {
                    "internalType": "bool",
                    "name": "",
                    "type": "bool"
                }
            ],
            "stateMutability": "nonpayable",
            "type": "function"
        },
        {
            "inputs": [
                {
                    "internalType": "address",
                    "name": "from",
                    "type": "address"
                },
                {
                    "internalType": "address",
                    "name": "to",
                    "type": "address"
                },
                {
                    "internalType": "uint256",
                    "name": "value",
                    "type": "uint256"
                }
            ],
            "name": "transferFrom",
            "outputs": [
                {
                    "internalType": "bool",
                    "name": "",
                    "type": "bool"
                }
            ],
            "stateMutability": "nonpayable",
            "type": "function"
        },
        {
            "inputs": [
                {
                    "internalType": "uint256",
                    "name": "_amount",
                    "type": "uint256"
                }
            ],
            "name": "withdraw",
            "outputs": [],
            "stateMutability": "nonpayable",
            "type": "function"
        }
    ],
    "bytecode": "608060405234801562000010575f80fd5b5060405162000cfd38038062000cfd8339810160408190526200003391620000c0565b6040518060400160405280600d81526020016c2bb930b83832b21022ba3432b960991b815250604051806040016040528060048152602001630ae8aa8960e31b81525081600390816200008791906200018f565b5060046200009682826200018f565b5050600580546001600160a01b0319166001600160a01b0393909316929092179091555062000257565b5f60208284031215620000d1575f80fd5b81516001600160a01b0381168114620000e8575f80fd5b9392505050565b634e487b7160e01b5f52604160045260245ffd5b600181811c908216806200011857607f821691505b6020821081036200013757634e487b7160e01b5f52602260045260245ffd5b50919050565b601f8211156200018a575f81815260208120601f850160051c81016020861015620001655750805b601f850160051c820191505b81811015620001865782815560010162000171565b5050505b505050565b81516001600160401b03811115620001ab57620001ab620000ef565b620001c381620001bc845462000103565b846200013d565b602080601f831160018114620001f9575f8415620001e15750858301515b5f19600386901b1c1916600185901b17855562000186565b5f85815260208120601f198616915b82811015620002295788860151825594840194600190910190840162000208565b50858210156200024757878501515f19600388901b60f8161c191681555b5050505050600190811b01905550565b610a9880620002655f395ff3fe6080604052600436106100bf575f3560e01c806340c10f191161007c57806395d89b411161005757806395d89b411461021f578063a9059cbb14610233578063d0e30db014610252578063dd62ed3e1461025a575f80fd5b806340c10f191461019557806370a08231146101b457806392dd9b31146101e8575f80fd5b806306fdde03146100c3578063095ea7b3146100ed57806318160ddd1461011c57806323b872dd1461013a5780632e1a7d4d14610159578063313ce5671461017a575b5f80fd5b3480156100ce575f80fd5b506100d761029e565b6040516100e491906108a2565b60405180910390f35b3480156100f8575f80fd5b5061010c610107366004610908565b61032e565b60405190151581526020016100e4565b348015610127575f80fd5b506002545b6040519081526020016100e4565b348015610145575f80fd5b5061010c610154366004610930565b610347565b348015610164575f80fd5b50610178610173366004610969565b61036a565b005b348015610185575f80fd5b50604051601281526020016100e4565b3480156101a0575f80fd5b506101786101af366004610908565b6103fc565b3480156101bf575f80fd5b5061012c6101ce366004610980565b6001600160a01b03165f9081526020819052604090205490565b3480156101f3575f80fd5b50600554610207906001600160a01b031681565b6040516001600160a01b0390911681526020016100e4565b34801561022a575f80fd5b506100d7610406565b34801561023e575f80fd5b5061010c61024d366004610908565b610415565b610178610422565b348015610265575f80fd5b5061012c6102743660046109a0565b6001600160a01b039182165f90815260016020908152604080832093909416825291909152205490565b6060600380546102ad906109d1565b80601f01602080910402602001604051908101604052809291908181526020018280546102d9906109d1565b80156103245780601f106102fb57610100808354040283529160200191610324565b820191905f5260205f20905b81548152906001019060200180831161030757829003601f168201915b5050505050905090565b5f3361033b818585610558565b60019150505b92915050565b5f3361035485828561056a565b61035f8585856105e5565b506001949350505050565b335f908152602081905260409020548111156103c45760405162461bcd60e51b8152602060048201526014602482015273496e73756666696369656e742062616c616e636560601b60448201526064015b60405180910390fd5b6103ce3382610642565b604051339082156108fc029083905f818181858888f193505050501580156103f8573d5f803e3d5ffd5b5050565b6103f88282610676565b6060600480546102ad906109d1565b5f3361033b8185856105e5565b67016345785d8a00003410156104885760405162461bcd60e51b815260206004820152602560248201527f496e73756666696369656e74206465706f7369742c206d696e696d756d20302c604482015264062408aa8960db1b60648201526084016103bb565b5f610494600534610a1d565b6005546040519192505f916001600160a01b039091169083908381818185875af1925050503d805f81146104e3576040519150601f19603f3d011682016040523d82523d5f602084013e6104e8565b606091505b50509050806105455760405162461bcd60e51b815260206004820152602360248201527f4661696c656420746f2073656e6420323025206f66204574686572206465706f6044820152621cda5d60ea1b60648201526084016103bb565b6103f8336105538434610a3c565b610676565b61056583838360016106aa565b505050565b6001600160a01b038381165f908152600160209081526040808320938616835292905220545f1981146105df57818110156105d157604051637dc7a0d960e11b81526001600160a01b038416600482015260248101829052604481018390526064016103bb565b6105df84848484035f6106aa565b50505050565b6001600160a01b03831661060e57604051634b637e8f60e11b81525f60048201526024016103bb565b6001600160a01b0382166106375760405163ec442f0560e01b81525f60048201526024016103bb565b61056583838361077c565b6001600160a01b03821661066b57604051634b637e8f60e11b81525f60048201526024016103bb565b6103f8825f8361077c565b6001600160a01b03821661069f5760405163ec442f0560e01b81525f60048201526024016103bb565b6103f85f838361077c565b6001600160a01b0384166106d35760405163e602df0560e01b81525f60048201526024016103bb565b6001600160a01b0383166106fc57604051634a1406b160e11b81525f60048201526024016103bb565b6001600160a01b038085165f90815260016020908152604080832093871683529290522082905580156105df57826001600160a01b0316846001600160a01b03167f8c5be1e5ebec7d5bd14f71427d1e84f3dd0314c0f7b2291e5b200ac8c7c3b9258460405161076e91815260200190565b60405180910390a350505050565b6001600160a01b0383166107a6578060025f82825461079b9190610a4f565b909155506108169050565b6001600160a01b0383165f90815260208190526040902054818110156107f85760405163391434e360e21b81526001600160a01b038516600482015260248101829052604481018390526064016103bb565b6001600160a01b0384165f9081526020819052604090209082900390555b6001600160a01b03821661083257600280548290039055610850565b6001600160a01b0382165f9081526020819052604090208054820190555b816001600160a01b0316836001600160a01b03167fddf252ad1be2c89b69c2b068fc378daa952ba7f163c4a11628f55a4df523b3ef8360405161089591815260200190565b60405180910390a3505050565b5f6020808352835180828501525f5b818110156108cd578581018301518582016040015282016108b1565b505f604082860101526040601f19601f8301168501019250505092915050565b80356001600160a01b0381168114610903575f80fd5b919050565b5f8060408385031215610919575f80fd5b610922836108ed565b946020939093013593505050565b5f805f60608486031215610942575f80fd5b61094b846108ed565b9250610959602085016108ed565b9150604084013590509250925092565b5f60208284031215610979575f80fd5b5035919050565b5f60208284031215610990575f80fd5b610999826108ed565b9392505050565b5f80604083850312156109b1575f80fd5b6109ba836108ed565b91506109c8602084016108ed565b90509250929050565b600181811c908216806109e557607f821691505b602082108103610a0357634e487b7160e01b5f52602260045260245ffd5b50919050565b634e487b7160e01b5f52601160045260245ffd5b5f82610a3757634e487b7160e01b5f52601260045260245ffd5b500490565b8181038181111561034157610341610a09565b8082018082111561034157610341610a0956fea2646970667358221220d8c44e59ada6385558f22282fa6d13cd7c9adc3990a9287a7766a46b0d08031364736f6c63430008140033",
    "sourcePath": "/home/nabuza/Alyra/Projet-Final_Legacy-Protocol/backend/contracts/WETH.sol",
    "compiler": {
        "name": "solc",
        "version": "0.8.20+commit.a1b79de6"
    },
    "functionHashes": {
        "allowance(address,address)": "dd62ed3e",
        "approve(address,uint256)": "095ea7b3",
        "balanceOf(address)": "70a08231",
        "decimals()": "313ce567",
        "deposit()": "d0e30db0",
        "mint(address,uint256)": "40c10f19",
        "name()": "06fdde03",
        "safetymodule()": "92dd9b31",
        "symbol()": "95d89b41",
        "totalSupply()": "18160ddd",
        "transfer(address,uint256)": "a9059cbb",
        "transferFrom(address,address,uint256)": "23b872dd",
        "withdraw(uint256)": "2e1a7d4d"
    },
    "gasEstimates": {
        "creation": {
            "codeDepositCost": "542400",
            "executionCost": "infinite",
            "totalCost": "infinite"
        },
        "external": {
            "allowance(address,address)": "infinite",
            "approve(address,uint256)": "24735",
            "balanceOf(address)": "2582",
            "decimals()": "287",
            "deposit()": "infinite",
            "mint(address,uint256)": "infinite",
            "name()": "infinite",
            "safetymodule()": "2403",
            "symbol()": "infinite",
            "totalSupply()": "2325",
            "transfer(address,uint256)": "51260",
            "transferFrom(address,address,uint256)": "infinite",
            "withdraw(uint256)": "infinite"
        }
    }
}