{
    "contractName": "Yield",
    "abi": [
        {
            "inputs": [
                {
                    "internalType": "address",
                    "name": "_weth",
                    "type": "address"
                },
                {
                    "internalType": "address",
                    "name": "_investor",
                    "type": "address"
                }
            ],
            "stateMutability": "nonpayable",
            "type": "constructor"
        },
        {
            "inputs": [],
            "name": "addInterest",
            "outputs": [],
            "stateMutability": "nonpayable",
            "type": "function"
        },
        {
            "inputs": [],
            "name": "getBalanceWETH",
            "outputs": [
                {
                    "internalType": "uint256",
                    "name": "",
                    "type": "uint256"
                }
            ],
            "stateMutability": "view",
            "type": "function"
        },
        {
            "inputs": [],
            "name": "investor",
            "outputs": [
                {
                    "internalType": "contract Investor",
                    "name": "",
                    "type": "address"
                }
            ],
            "stateMutability": "view",
            "type": "function"
        },
        {
            "inputs": [],
            "name": "transferFundsToInvestor",
            "outputs": [],
            "stateMutability": "nonpayable",
            "type": "function"
        },
        {
            "inputs": [],
            "name": "weth",
            "outputs": [
                {
                    "internalType": "contract WETH",
                    "name": "",
                    "type": "address"
                }
            ],
            "stateMutability": "view",
            "type": "function"
        }
    ],
    "bytecode": "608060405234801561000f575f80fd5b506040516104b03803806104b083398101604081905261002e9161007a565b600280546001600160a01b039384166001600160a01b031991821617909155600380549290931691161790556100ab565b80516001600160a01b0381168114610075575f80fd5b919050565b5f806040838503121561008b575f80fd5b6100948361005f565b91506100a26020840161005f565b90509250929050565b6103f8806100b85f395ff3fe608060405234801561000f575f80fd5b5060043610610055575f3560e01c80630d09365c146100595780631e0018d6146100635780632c74b1c2146100935780633fc8cef31461009b5780638234e16e146100ae575b5f80fd5b6100616100c4565b005b600354610076906001600160a01b031681565b6040516001600160a01b0390911681526020015b60405180910390f35b6100616101cd565b600254610076906001600160a01b031681565b6100b66102b3565b60405190815260200161008a565b6002546040516370a0823160e01b81523060048201526001600160a01b03909116906370a0823190602401602060405180830381865afa15801561010a573d5f803e3d5ffd5b505050506040513d601f19601f8201168201806040525081019061012e9190610322565b5f81905560649061014090606561034d565b61014a919061036a565b60018190556002545f546001600160a01b03909116916340c10f199130916101729190610389565b6040516001600160e01b031960e085901b1681526001600160a01b03909216600483015260248201526044015f604051808303815f87803b1580156101b5575f80fd5b505af11580156101c7573d5f803e3d5ffd5b50505050565b6002546003546040516370a0823160e01b81523060048201526001600160a01b039283169263a9059cbb92169083906370a0823190602401602060405180830381865afa158015610220573d5f803e3d5ffd5b505050506040513d601f19601f820116820180604052508101906102449190610322565b6040516001600160e01b031960e085901b1681526001600160a01b03909216600483015260248201526044016020604051808303815f875af115801561028c573d5f803e3d5ffd5b505050506040513d601f19601f820116820180604052508101906102b0919061039c565b50565b6002546040516370a0823160e01b81523060048201525f916001600160a01b0316906370a0823190602401602060405180830381865afa1580156102f9573d5f803e3d5ffd5b505050506040513d601f19601f8201168201806040525081019061031d9190610322565b905090565b5f60208284031215610332575f80fd5b5051919050565b634e487b7160e01b5f52601160045260245ffd5b808202811582820484141761036457610364610339565b92915050565b5f8261038457634e487b7160e01b5f52601260045260245ffd5b500490565b8181038181111561036457610364610339565b5f602082840312156103ac575f80fd5b815180151581146103bb575f80fd5b939250505056fea264697066735822122015d1e2e3c66fd6b43838b9e122ca1d59092f6625eb7626d315f3c68f10d6e10864736f6c63430008140033",
    "sourcePath": "/home/nabuza/Alyra/Projet-Final_Legacy-Protocol/backend/contracts/Yield.sol",
    "compiler": {
        "name": "solc",
        "version": "0.8.20+commit.a1b79de6"
    },
    "functionHashes": {
        "addInterest()": "0d09365c",
        "getBalanceWETH()": "8234e16e",
        "investor()": "1e0018d6",
        "transferFundsToInvestor()": "2c74b1c2",
        "weth()": "3fc8cef3"
    },
    "gasEstimates": {
        "creation": {
            "codeDepositCost": "203200",
            "executionCost": "infinite",
            "totalCost": "infinite"
        },
        "external": {
            "addInterest()": "infinite",
            "getBalanceWETH()": "infinite",
            "investor()": "2325",
            "transferFundsToInvestor()": "infinite",
            "weth()": "2369"
        }
    }
}